{
  "contractName": "CharityDonation",
  "abi": [
    {
      "inputs": [],
      "payable": false,
      "stateMutability": "nonpayable",
      "type": "constructor"
    },
    {
      "anonymous": false,
      "inputs": [
        {
          "indexed": true,
          "internalType": "address",
          "name": "donor",
          "type": "address"
        },
        {
          "indexed": true,
          "internalType": "uint256",
          "name": "charityId",
          "type": "uint256"
        },
        {
          "indexed": false,
          "internalType": "uint256",
          "name": "amount",
          "type": "uint256"
        }
      ],
      "name": "DonationMade",
      "type": "event"
    },
    {
      "constant": true,
      "inputs": [
        {
          "internalType": "uint256",
          "name": "",
          "type": "uint256"
        }
      ],
      "name": "charities",
      "outputs": [
        {
          "internalType": "string",
          "name": "name",
          "type": "string"
        },
        {
          "internalType": "uint256",
          "name": "totalDonations",
          "type": "uint256"
        }
      ],
      "payable": false,
      "stateMutability": "view",
      "type": "function"
    },
    {
      "constant": true,
      "inputs": [],
      "name": "totalCharities",
      "outputs": [
        {
          "internalType": "uint256",
          "name": "",
          "type": "uint256"
        }
      ],
      "payable": false,
      "stateMutability": "view",
      "type": "function"
    },
    {
      "constant": false,
      "inputs": [
        {
          "internalType": "string",
          "name": "name",
          "type": "string"
        }
      ],
      "name": "registerCharity",
      "outputs": [],
      "payable": false,
      "stateMutability": "nonpayable",
      "type": "function"
    },
    {
      "constant": false,
      "inputs": [
        {
          "internalType": "uint256",
          "name": "charityId",
          "type": "uint256"
        }
      ],
      "name": "makeDonation",
      "outputs": [],
      "payable": true,
      "stateMutability": "payable",
      "type": "function"
    },
    {
      "constant": true,
      "inputs": [
        {
          "internalType": "uint256",
          "name": "charityId",
          "type": "uint256"
        }
      ],
      "name": "getCharityDonations",
      "outputs": [
        {
          "internalType": "uint256",
          "name": "",
          "type": "uint256"
        }
      ],
      "payable": false,
      "stateMutability": "view",
      "type": "function"
    }
  ],
  "bytecode": "0x608060405234801561001057600080fd5b506000600181905550610601806100286000396000f3fe60806040526004361061004a5760003560e01c806359d06eba1461004f57806399b9b4631461009e578063b219f91614610166578063f4fbace814610194578063fb709d2e146101bf575b600080fd5b34801561005b57600080fd5b506100886004803603602081101561007257600080fd5b810190808035906020019092919050505061027a565b6040518082815260200191505060405180910390f35b3480156100aa57600080fd5b50610164600480360360208110156100c157600080fd5b81019080803590602001906401000000008111156100de57600080fd5b8201836020820111156100f057600080fd5b8035906020019184600183028401116401000000008311171561011257600080fd5b91908080601f016020809104026020016040519081016040528093929190818152602001838380828437600081840152601f19601f820116905080830192505050505050509192919290505050610310565b005b6101926004803603602081101561017c57600080fd5b8101908080359060200190929190505050610379565b005b3480156101a057600080fd5b506101a9610465565b6040518082815260200191505060405180910390f35b3480156101cb57600080fd5b506101f8600480360360208110156101e257600080fd5b810190808035906020019092919050505061046b565b6040518080602001838152602001828103825284818151815260200191508051906020019080838360005b8381101561023e578082015181840152602081019050610223565b50505050905090810190601f16801561026b5780820380516001836020036101000a031916815260200191505b50935050505060405180910390f35b600060015482106102f3576040517f08c379a00000000000000000000000000000000000000000000000000000000081526004018080602001828103825260128152602001807f496e76616c69642063686172697479204944000000000000000000000000000081525060200191505060405180910390fd5b600080838152602001908152602001600020600101549050919050565b6040518060400160405280828152602001600081525060008060015481526020019081526020016000206000820151816000019080519060200190610356929190610527565b506020820151816001015590505060016000815480929190600101919050555050565b60015481106103f0576040517f08c379a00000000000000000000000000000000000000000000000000000000081526004018080602001828103825260128152602001807f496e76616c69642063686172697479204944000000000000000000000000000081525060200191505060405180910390fd5b3460008083815260200190815260200160002060010160008282540192505081905550803373ffffffffffffffffffffffffffffffffffffffff167fd97bcdf12fa1d5342fc942da5eadf35c7597f34f8da7274c2b0d2ad979842679346040518082815260200191505060405180910390a350565b60015481565b6000602052806000526040600020600091509050806000018054600181600116156101000203166002900480601f0160208091040260200160405190810160405280929190818152602001828054600181600116156101000203166002900480156105175780601f106104ec57610100808354040283529160200191610517565b820191906000526020600020905b8154815290600101906020018083116104fa57829003601f168201915b5050505050908060010154905082565b828054600181600116156101000203166002900490600052602060002090601f016020900481019282601f1061056857805160ff1916838001178555610596565b82800160010185558215610596579182015b8281111561059557825182559160200191906001019061057a565b5b5090506105a391906105a7565b5090565b6105c991905b808211156105c55760008160009055506001016105ad565b5090565b9056fea265627a7a72315820c1b04c00b9f418076df4ed49f7570cd835df0e0cf2093f2f3b7155844281263d64736f6c63430005100032",
  "source": "// SPDX-License-Identifier: MIT\npragma solidity >=0.4.0 < 0.9.0;\n\ncontract CharityDonation {\n    struct Charity {\n        string name;\n        uint256 totalDonations;\n    }\n\n    mapping(uint256 => Charity) public charities;\n    uint256 public totalCharities;\n\n    event DonationMade(address indexed donor, uint256 indexed charityId, uint256 amount);\n\n    constructor() public {\n        totalCharities = 0;\n    }\n\n    function registerCharity(string memory name) public {\n        charities[totalCharities] = Charity(name, 0);\n        totalCharities++;\n    }\n\n    function makeDonation(uint256 charityId) public payable {\n        require(charityId < totalCharities, \"Invalid charity ID\");\n        charities[charityId].totalDonations += msg.value;\n        emit DonationMade(msg.sender, charityId, msg.value);\n    }\n\n    function getCharityDonations(uint256 charityId) public view returns (uint256) {\n        require(charityId < totalCharities, \"Invalid charity ID\");\n        return charities[charityId].totalDonations;\n    }\n}\n\n",
  "sourcePath": "/home/animeshkumar923/Desktop/vac-blockchain-project/charity-GPT-test/contracts/CharityDonation.sol",
  "compiler": {
    "name": "solc",
    "version": "0.5.16+commit.9c3226ce.Emscripten.clang"
  },
  "schemaVersion": "3.4.14",
  "updatedAt": "2023-07-08T17:00:44.177Z",
  "networkType": "ethereum",
  "devdoc": {
    "methods": {}
  },
  "userdoc": {
    "methods": {}
  }
}